:020000040800F2
:10000000FCFF0020BD1C0000B51C0000B51C00005A
:10001000B51C0000B51C0000B51C0000B51C00009C
:10002000B51C0000B51C0000B51C0000B51C00008C
:10003000B51C0000B51C0000B51C0000B51C00007C
:10004000B51C0000B51C0000B51C0000B51C00006C
:10005000B51C0000B51C0000B51C0000B51C00005C
:10006000B51C0000B51C0000B51C0000B51C00004C
:10007000B51C0000B51C0000B51C0000B51C00003C
:10008000B51C0000B51C0000B51C0000B51C00002C
:10009000B51C0000B51C0000B51C0000B51C00001C
:1000A000B51C0000B51C0000B51C0000B51C00000C
:1000B000B51C0000B51C0000B51C0000B51C0000FC
:1000C000B51C0000B51C0000B51C0000B51C0000EC
:1000D000B51C0000B51C0000B51C0000B51C0000DC
:1000E000B51C0000B51C0000B51C0000B51C0000CC
:1000F000B51C0000B51C0000B51C0000B51C0000BC
:10010000B51C0000B51C0000B51C0000B51C0000AB
:10011000B51C0000B51C0000B51C0000B51C00009B
:10012000B51C0000B51C0000B51C0000B51C00008B
:10013000B51C0000B51C0000B51C0000B51C00007B
:10014000B51C0000B51C0000B51C0000B51C00006B
:1001500081B00168C1F3401001B0704781B00268FE
:10016000C2F3401101B9FAE7011D096888B201B074
:100170007047FFFF81B00168C1F3801001B0704784
:1001800083B0CDF800E000F0FF031A09104603F039
:100190000F02134614E0194A02921FE0184A029215
:1001A0001CE0184A029219E0174A029216E0174A18
:1001B000029213E0164A029210E0164A02920DE0F3
:1001C0000028E8D00128E9D00228EAD00328EBD0A3
:1001D0000428ECD00528EDD00628EED0012212B27A
:1001E0009A40ADF8042002980A46BDF8041000F0C9
:1001F000EFF9DDF800E003B0704700BF00080140F0
:10020000000C0140001001400014014000180140A2
:10021000001C01400020014001480068704700BFF9
:10022000C001002081B0CDF800E00348FFF796FF41
:10023000DDF800E001B070470048004081B0CDF823
:1002400000E00348FFF784FFDDF800E001B07047ED
:100250000048004081B0CDF800E00348FFF78AFF76
:10026000DDF800E001B070470048004081B0CDF8F3
:1002700000E0012252B23E490A6000F268010B68B8
:100280006FF0006103EA0102144603F00061C90E39
:100290000B4602F00041B1F1004F02D135490A6826
:1002A00001E035490A6804F47021090C0E464FF646
:1002B000FF7104EA01010D4604F44011B1F5401F3D
:1002C0000DD16FF0706102EA01010E462A490A68F9
:1002D0006FF070610A4028490A60324616E004F463
:1002E0008011B1F5801F09D14FF00301B140C9431E
:1002F00002EA010141F070610A4607E0610D09015F
:1003000005FA01F1C9430A4042F070622BB1610D58
:10031000090105FA01F10A43FFE704F00041B1F1D8
:10032000004F02D113490A6001E013490A6040F20C
:10033000000A81464FEA8A0109EB01010968B1F11F
:10034000FF3F10D009F134014FEA8A03C918096848
:100350000A4609EB0301096808461146FFF710FF3A
:100360000AF1010AE6E7DDF800E001B0704700BFDE
:10037000000342421C0001400400014081B0CDF85E
:1003800000E00348FFF7E4FEDDF800E001B070474D
:100390000044004081B0CDF800E00348FFF7EAFEDA
:1003A000DDF800E001B070470044004081B0CDF8B6
:1003B00000E00348FFF7D2FEDDF800E001B070472F
:1003C0000050004081B0CDF800E00348FFF7C0FEC8
:1003D000DDF800E001B070470050004081B0CDF87A
:1003E00000E00348FFF7C6FEDDF800E001B070470B
:1003F0000050004081B0CDF800E00348FFF7AEFEAA
:10040000DDF800E001B07047004C004081B0CDF84D
:1004100000E00348FFF79CFEDDF800E001B0704704
:10042000004C004081B0CDF800E00348FFF7A2FE89
:10043000DDF800E001B07047004C004081B0CDF81D
:1004400000E00348FFF784FEDDF800E001B07047EC
:100450000038014081B0CDF800E00348FFF78AFE84
:10046000DDF800E001B070470038014081B0CDF800
:1004700000E00348FFF772FEDDF800E001B07047CE
:100480000038014081B0194900EA01010846002204
:100490000EE0042022E0082020E010201EE02020B2
:1004A0001CE040201AE0802018E040F2001015E027
:1004B0000F498842EDD00F498842ECD00E4988425E
:1004C000EBD00E498842EAD00D498842E9D00D4967
:1004D0008842E8D00C498842E7D010460B490968A9
:1004E00041EA000209490A6001B0704700FCFFFFC1
:1004F00000080140000C01400010014000140140C0
:1005000000180140001C014000200140181002406A
:1005100081B0CDF800E00348FFF720FEDDF800E0F1
:1005200001B070470044004082B0CDF800E00346BF
:1005300019460191FFF770FE40F2E83100FB01F22D
:1005400001990A601F490978C1F30311C8B21E4915
:1005500009180878C0B21A1D1968C14011601949FC
:100560000988C1F3022188B2174909180878C0B276
:1005700003F20802191D0968C14011601149098878
:10058000C1F3C22188B2104909180878C0B203F239
:100590000C02191D0968C14011600A490988C1F39C
:1005A000813188B2094909180978C8B203F21002EA
:1005B00003F20C010968B1FBF0F11160DDF800E015
:1005C00002B070470410024094200000FC0D0000AF
:1005D00081B0CDF800E08CB21546774B00EA0303FA
:1005E0001E461846FFF74EFFB4F1FF0F0CD1734BB8
:1005F0009D4203D14FF033333360D9E0422D03D114
:100600004FF044333360D3E04FF6FF739C4214D174
:100610006A4B9D4207D14FF033333360341D4FF0A6
:1006200033332360C4E0422D07D14FF044333360AD
:10063000341D4FF044332360BAE00021002005F060
:1006400001030BB100211DE005F0020333B105F4F5
:10065000C0730BB1082100E0042113E005F004038E
:1006600033B105F020030BB1042100E0002109E0C3
:1006700005F0080333B105F020030BB10C2100E0B5
:100680000821FFE74E4B05EA03030BB1032009E005
:1006900005F400730BB1022004E005F480630BB194
:1006A0000120FFE705F00C030BB10143FFE704F065
:1006B000FF039BB2002B3BD0376800201FFA84F861
:1006C00032462E4608282CD24FF0010303FA00F4DC
:1006D00008EA0403A34222D185004FF00F03AB4088
:1006E000DB4307EA030401FA05F344EA03031D466A
:1006F00006F48173B3F5817F05D102F214044FF043
:1007000001038340236006F08203822B05D102F2AD
:1007100010044FF00103834023602F46FFE7401C85
:10072000D0E717601FFA88F00F463146164602E000
:100730000F462946A0B2B0F1FF0F39D9331DD3F8C7
:1007400000800022082A30D202F208044FF0010390
:1007500003FA04F400EA0403A34224D195004FF005
:100760000F03AB40DB4308EA030807FA05F348EA46
:10077000030801F48173B3F5817F07D106F21405F4
:1007800002F208044FF00103A3402B6001F0820342
:10079000822B07D106F2100502F208044FF0010384
:1007A000A3402B60FFE7521CCCE7331DC3F8008049
:1007B000DDF800E001B0704700FCFFFF1400080006
:1007C0000008080081B0CDF800E0044C2468A04780
:1007D000C0B2DDF800E001B0704700BFE4010020C6
:1007E00081B0ADF800100146BDF800000B68C3F3FE
:1007F000C01202B9FAE70A1D106001B07047FFFF8E
:10080000AA2201785318411C0A78D9B28918CBB2B0
:100810000022411C09788A4207D2811C8918097874
:100820005918CBB2521CD2B2F3E7D943C9B2491C12
:10083000C8B2704789B0CDF800E0834698B28C46C4
:10084000BDF824100A9E04ACADF80410ADF8080001
:100850002046FFF769FEBDF80800BDF80410644C9F
:10086000A34512D101256DB2624C2560624D634CE7
:100870002560634D634C2560634D644C2560644D79
:10088000644C2560079C039456E0634CA34512D149
:1008900001256DB2614C2560614D584C2560614D5C
:1008A000584C2560604D594C2560604D594C256071
:1008B000069C039440E05E4CA34512D101256DB225
:1008C0005C4C25605C4D4D4C25605C4D4D4C25606D
:1008D0005B4D4E4C25605B4D4E4C2560069C039451
:1008E0002AE0594CA34512D101256DB2574C256021
:1008F000574D424C2560574D424C2560564D434C58
:100900002560564D434C2560069C039414E0544CDE
:10091000A34511D101256DB2524C2560524D374C83
:100920002560524D374C2560514D384C2560514D56
:10093000384C2560069C0394ADF80410ADF808000F
:100940003046FFF793FCBDF80800BDF804100BF12A
:10095000100500242C600BF110052C680C432C6052
:100960000BF10C0500242C6018B140F4806080B2BB
:10097000FFE70BF10C052C6804432C600BF10C060F
:100980000125346865F34D3434600BF10C06012504
:10099000346865F3C30434600BF10C060125346838
:1009A00065F3820434600BF1140500242C60039D70
:1009B000192465434FEA8C04B5FBF4F76424B7FBB4
:1009C000F4F42601350964246C433C1B240104F231
:1009D00032056424B5FBF4F404F00F0446EA040481
:1009E0000BF10805A4B22C60DDF800E009B07047F7
:1009F0000038014038034242390D0000C401002094
:100A00006D040000C80100203D040000CC0100205E
:100A100055040000D001002000440040C4034242BD
:100A2000550D0000110500007D0300009503000036
:100A300000480040C8034242710D0000250200003A
:100A40003D02000055020000004C0040CC03424231
:100A50000D0C0000F50300000D040000250400004B
:100A600000500040D0034242AD0A0000AD03000038
:100A7000C5030000DD03000081B0CDF800E0034CA9
:100A80002468A047DDF800E001B07047DC010020D9
:100A900081B0CDF800E0044C2468A047C0B2DDF876
:100AA00000E001B0704700BFE001002081B0CDF848
:100AB00000E081B20348FFF793FEDDF800E001B0EB
:100AC000704700BF0050004086B0CDF800E00290B3
:100AD00040F20001ADF80410FFF774FE00B9FBE727
:100AE000FFF7D6FFAA2801D0FF204AE0FFF76AFEF1
:100AF00000B9FBE702990591FFF7CAFF0599087055
:100B0000FFF760FE00B9FBE70299491C0591FFF76A
:100B1000BFFF0599087009788DF80D109DF80D102C
:100B2000B9B1FFF74FFE98B102998A1CBDF80410C5
:100B300051180591FFF7ACFF05990870BDF8041036
:100B4000491CADF804109DF80D10491E8DF80D10CC
:100B5000E4E7FFF737FE00B9FBE7FFF799FF8DF8F1
:100B60000C000120094C2468A04700F049F90298C4
:100B7000FFF746FE9DF80C10814201D1002000E0F5
:100B8000FD20DDF800E006B0704700BFD401002072
:100B900084B0CDF800E003900398FFF731FE8DF8A4
:100BA00008000020184C2468A04700F029F9AA206A
:100BB000FFF762FF03990978C8B2FFF75DFF039959
:100BC000491C0978C8B2FFF757FF0023D8B2039930
:100BD000491C097888420ED20399891C09180978A2
:100BE0008DF80400C8B2FFF747FF9DF80400411CD0
:100BF000CBB2D8B2EBE79DF80800FFF73DFFDDF878
:100C000000E004B0704700BFD401002081B0CDF8EF
:100C100000E081B20348FFF7E3FDDDF800E001B03A
:100C2000704700BF004C004081B0CDF800E0019D4E
:100C30002C4610B408B493B28AB201460348FFF7B9
:100C4000F9FD02B0DDF800E001B07047004400405B
:100C500081B00309DBB2084AD21812780A704C1C22
:100C600000F00F03DBB2044AD218127822708B1CFA
:100C700000221A7001B07047B420000081B0014614
:100C800040F200052DB208460C460B46FFE70178FE
:100C9000202901D105B904E001252DB20178217088
:100CA000641C0246401C11780029F0D1184601B09E
:100CB0007047FFFF81B0CDF800E04FF0420289B2EB
:100CC000FFF786FCDDF800E001B0704781B0CDF899
:100CD00000E0044A89B2FFF77BFCDDF800E001B0D8
:100CE000704700BF1400080081B0CDF800E0019DFE
:100CF0002C4610B408B493B28AB201460348FFF7F9
:100D000099FD02B0DDF800E001B0704700480040F6
:100D100081B0CDF800E0019D2C4610B408B493B228
:100D20008AB201460348FFF785FD02B0DDF800E016
:100D300001B070470038014081B0CDF800E081B2C9
:100D40000348FFF74DFDDDF800E001B0704700BF3C
:100D50000038014081B0CDF800E081B20348FFF7D0
:100D60003FFDDDF800E001B0704700BF00440040E7
:100D700081B0CDF800E081B20348FFF731FDDDF826
:100D800000E001B0704700BF004800400148006823
:100D9000704700BF2881224201480068704700BFA9
:100DA0003001224201480068704700BF0001214223
:100DB00001480068704700BF2801224282B0CDF888
:100DC00000E00191FFF7E4FE0198FFF77DFEDDF8FA
:100DD00000E002B07047FFFF01480068704700BFA5
:100DE0003881224201480068704700BF24812242B6
:100DF00001480068704700BF2C0122420204060827
:100E000044F67F77C0F212077F1EFDD100BF00BFFE
:100E100000BF00BF00BF704781B08DF800200246C0
:100E20009DF80000C4B2431ED8B224B10B781370F1
:100E3000521C491CF6E701B07047FFFF01480068EB
:100E4000704700BF1881214201480068704700BF09
:100E50001C81214201480068704700BF0C012242FA
:100E600001480068704700BF140121420148006832
:100E7000704700BF2081224201480068704700BFD0
:100E80002801224201480068704700BF2C0122421D
:100E900001480068704700BF348122420148006861
:100EA000704700BF1001214201480068704700BF31
:100EB0000801224281B0CDF800E00178CCB2A0B2A6
:100EC000034C2468A0470020DDF800E001B0704723
:100ED000BC01002001480068704700BF30812242F9
:100EE00001480068704700BF3081224281B0CDF8D0
:100EF00000E0094902B440F2000340F2000240F26F
:100F00000001FFF705FF01B0044A05490A6000200F
:100F1000DDF800E001B07047DC1E0000390D000074
:100F2000BC01002081B0CDF800E0094902B440F2D4
:100F3000000340F2000240F20001FFF775FE01B02D
:100F4000044A05490A600020DDF800E001B070475E
:100F5000B41F0000550D0000BC01002001480068CE
:100F6000704700BF3001224201490860704700BF4E
:100F7000A801224201490860704700BFAC0122422B
:100F800001490860704700BFB481224201490860EE
:100F9000704700BF9001214201490860704700BFBF
:100FA0008801224281B0CDF800E0A9E0012905D1F5
:100FB00040F210016548FFF77DFE04E040F21001A9
:100FC0006248FFF783FEBBE0012905D140F204012E
:100FD0005F48FFF76FFE04E040F204015C48FFF752
:100FE00075FEADE0012905D142F200015948FFF735
:100FF00061FE04E042F200015648FFF767FE9FE001
:10100000012905D140F200415148FFF753FE04E0A9
:1010100040F200414E48FFF759FE91E0012905D109
:1010200040F600014A48FFF745FE04E040F60001A3
:101030004748FFF74BFE83E0012905D141F200014B
:101040004348FFF737FE04E041F200014048FFF754
:101050003DFE75E0012905D140F201013B48FFF753
:1010600029FE04E040F201013848FFF72FFE67E057
:10107000012905D140F200413648FFF71BFE04E08C
:1010800040F200413348FFF721FE59E0012905D124
:1010900040F200212F48FFF70DFE04E040F200214E
:1010A0002C48FFF713FE4BE0012905D140F2001157
:1010B0002848FFF7FFFD04E040F200112548FFF744
:1010C00005FE3DE0012905D140F240012248FFF72D
:1010D000F1FD04E040F240011F48FFF7F7FD2FE06B
:1010E000012905D140F280011B48FFF7E3FD04E030
:1010F00040F280011848FFF7E9FD21E0012020E0DF
:1011000000283FF453AF01283FF45EAF02283FF4BC
:1011100069AF03283FF474AF04283FF47FAF05287C
:101120003FF48AAF06283FF495AF0728A0D00828DF
:10113000ACD00928B8D00A28C4D00B28D0D0DDE71D
:101140000020DDF800E001B0704700BF000801405A
:101150000010014000140140000C014081B0CDF8A6
:1011600000E0A9E0012905D140F220016548FFF720
:10117000A1FD04E040F220016248FFF7A7FDBBE0BB
:10118000012905D140F208015F48FFF793FD04E013
:1011900040F208015C48FFF799FDADE0012905D157
:1011A00044F200015948FFF785FD04E044F20001D4
:1011B0005648FFF78BFD9FE0012905D140F2004121
:1011C0005148FFF777FD04E040F200414E48FFF739
:1011D0007DFD91E0012905D140F600014A48FFF765
:1011E00069FD04E040F600014748FFF76FFD83E02A
:1011F000012905D141F200014348FFF75BFD04E0FE
:1012000041F200014048FFF761FD75E0012905D179
:1012100041F200013D48FFF74DFD04E041F20001BD
:101220003A48FFF753FD67E0012905D140F6000178
:101230003648FFF73FFD04E040F600013348FFF772
:1012400045FD59E0012905D140F240012F48FFF743
:1012500031FD04E040F240012C48FFF737FD4BE040
:10126000012905D140F220012848FFF723FD04E0C1
:1012700040F220012548FFF729FD3DE0012905D175
:1012800040F240012248FFF715FD04E040F2400122
:101290001F48FFF71BFD2FE0012905D140F2800117
:1012A0001B48FFF707FD04E040F280011848FFF7F4
:1012B0000DFD21E0012020E000283FF453AF01287C
:1012C0003FF45EAF02283FF469AF03283FF474AFE8
:1012D00004283FF47FAF05283FF48AAF06283FF487
:1012E00095AF0728A0D00828ACD00928B8D00A2884
:1012F000C4D00B28D0D0DDE70020DDF800E001B03D
:10130000704700BF00080140001001400014014078
:10131000000C014001480068704700BF188121425D
:1013200089B0CDF800E0079108920DF1050B0BF1A3
:10133000140ADFF89CC000F0E5FB0DF1050403780A
:101340002146D8B2FFF784FC224B0121184600F059
:1013500071F90DF105031846FFF790FC0DF1050337
:101360000221184600F066F91B4B0121184600F0D7
:1013700061F900238DF80430079B1C789DF8043038
:10138000A3421BD20DF105059DF80440089B1B19D3
:101390001B782946D8B2FFF75BFC0DF10503184610
:1013A000FFF76CFC0DF105030121184600F042F92E
:1013B0009DF804305B1C8DF80430DDE7074B0221FB
:1013C000184600F037F9DDF800E009B0704700BFBB
:1013D00080200000920000209D000020A800002036
:1013E00001480068704700BF1C8121420148006825
:1013F000704700BF1481224281B0CDF800E0094956
:1014000002B440F2000340F2000240F20001FFF794
:101410006BFC01B0044A05490A600020DDF800E0D9
:1014200001B07047481F0000710D0000BC01002092
:1014300081B0CDF800E0094902B440F2000340F267
:10144000000240F20001FFF7EFFB01B0044A05493A
:101450000A600020DDF800E001B07047B41F000012
:10146000550D0000BC01002001480068704700BF16
:101470001881224281B0CDF800E00B4D00F20C0142
:101480000C6800F208010B68011D0A680168084633
:1014900091B29AB2A3B220B4FFF726FC01B00020AB
:1014A000DDF800E001B07047481F000081B0CDF8C2
:1014B00000E00B4D00F20C010C6800F208010B6813
:1014C000011D0A680168084691B29AB2A3B220B41D
:1014D000FFF7AAFB01B00020DDF800E001B0704783
:1014E000B41F000001490860704700BFB08122426C
:1014F00001490860704700BF988122420149086095
:10150000704700BFB081224201490860704700BFA8
:10151000AC01224201490860704700BFB00122427D
:1015200001490860704700BF9481224200F23001F7
:101530001C310A6805490A6000F208010A6804497A
:101540000A60011D0A6803490A607047EC01002027
:10155000D4010020E801002041F6FF27C0F2B707C0
:101560007F1EFDD100BF00BF00BF00BF00BF70479E
:10157000026806490A60011D0A6805490A6000F20E
:1015800008010A6803490A60704700BFDC010020B7
:10159000E0010020E401002001490860704700BF1D
:1015A0009881214201490860704700BF9C81214217
:1015B00001490860704700BFA481224201490860C8
:1015C000704700BFA081224201490860704700BFF8
:1015D000A881224201490860704700BFB001224241
:1015E00001490860704700BF80012142014908603D
:1015F000704700BF9881214201490860704700BFD1
:10160000B881224201490860704700BFA801224208
:1016100001490860704700BF8C01224201490860FF
:10162000704700BF9C81214201490860704700BF9C
:101630009401214283B0CDF800E0024610460D220D
:101640008DF808200A228DF809201FE0FFF732FCF0
:1016500023E002782AB10190FFF72CFC0198401C8E
:10166000F7E71AE002782AB10190FFF723FC01980E
:10167000401CF7E702AA1046FFF71CFC0DF1090217
:101680001046FFF717FC08E0062007E00029DDD030
:101690000129DED00229E5D0F6E70020DDF800E0E0
:1016A00003B0704781B0CDF800E003460846FFF76D
:1016B0005FFF1846FFF73AFF0120064C2468A04759
:1016C0000120054C2468A047FFF746FFDDF800E045
:1016D00001B07047E8010020D401002081B0CDF8AE
:1016E00000E000200B4C2468A047FFF789FBFFF7C0
:1016F00087FBFFF785FBFFF783FBFFF781FB0120EB
:10170000044C2468A047FFF727FFDDF800E001B094
:10171000704700BFE801002081B0CDF800E05FFA1B
:1017200081F95FFA82FA0FE05FFA8AF15FFA89F0D5
:10173000FFF738FC0DE05FFA8AF15FFA89F0FFF7F6
:101740000DFD06E0012004E00028EDD00128F2D0D4
:10175000F8E7DDF800E001B07047FFFF81B0CDF899
:1017600000E009E00846FFF785FE0AE00846FFF7BB
:101770009DFE06E0012004E00028F3D00128F5D00A
:10178000F8E7DDF800E001B07047FFFF81B0CDF869
:1017900000E011E00846FFF72FFE16E00846FFF7CD
:1017A00047FE12E00846FFF7A1FB0EE00846FFF7F0
:1017B000B9FB0AE0012008E00028EBD00128EDD0B9
:1017C0002028EFD03028F1D0F4E7DDF800E001B0B8
:1017D0007047FFFF01490860704700BFD801002033
:1017E000ADF2082DCDF800E040218DF80410012164
:1017F0008DF805100DF1060108700DF2051201A912
:1018000008461146FFF7DAFAC1B208B1C8B214E0CF
:101810009DF8041041F08002D2B29DF805118A4271
:1018200001D0FE2009E09DF80611012904D10DF236
:1018300007110978C8B200E0FE20DDF800E00DF2E3
:10184000082D7047ADF2082DCDF800E0FD2901D933
:10185000FC2038E0012A01D2012203E0DF2A01D96D
:10186000DF22FFE746248DF804408C1C8DF80540EC
:101870000DF106052B706C1C2270AC1CCAB201461F
:101880002046FFF7C9FA0DF2051501AC294620469E
:10189000FFF794FAC1B208B1C8B214E09DF8044051
:1018A00044F08005EDB29DF80541A54201D0FE202F
:1018B00009E09DF80641012C04D10DF207142478AB
:1018C000E0B200E0FE20DDF800E00DF2082D7047E8
:1018D000C2B0CDF800E00A4C2468A04760B901A866
:1018E000FFF7F2F840B90DF106040DF1050101A86A
:1018F0002246044C2468A047DDF800E042B070475F
:10190000EC010020D8010020ADF20C2DCDF800E054
:101910008DF80420C2B29DF8040000F00F04E5B277
:1019200000F0F000C0B2032A01D2032203E00F2A24
:1019300001D90F22FFE7702803D900F00000C0B2E0
:10194000FFE7072D03D905F00007FFB200E0EFB273
:101950000409E4B2A74202D90709FFB2FFE7012B4D
:1019600001D90123FFE757248DF8084007248DF89B
:1019700009400DF10A063270751C01F0FF042C704D
:10198000B51C0C0A04F0FF042C70F51C0C0C04F0C0
:10199000FF042C70351D0C0E2C70751D47EA0004D9
:1019A0002C70B41D23700DF2091502AC2946204697
:1019B000FFF704FAC1B208B1C8B214E09DF80840BC
:1019C00044F08005EDB29DF80941A54201D0FE200A
:1019D00009E09DF80A41012C04D10DF20B14247882
:1019E000E0B200E0FE20DDF800E00DF20C2D7047C3
:1019F000ADF2082DCDF800E0072801D90720FFE758
:101A00004B218DF8041001218DF805100DF1060110
:101A100008700DF2051201A908461146FFF7CEF92C
:101A2000C1B208B1C8B214E09DF8041041F08002C0
:101A3000D2B29DF805118A4201D0FE2009E09DF83E
:101A40000611012904D10DF207110978C8B200E08E
:101A5000FE20DDF800E00DF2082D704781B04FF058
:101A600000094FF0000CBDEB0A0F04DCBDEB0B0FBF
:101A700001DBD446EA464BF8049BBBEB0A0FFAD1D4
:101A8000BCEB0A0F05DDE246D9F800B00BF1040B00
:101A9000F1E701B07047FFFF81B01548006840F0E2
:101AA000010113480160134913480160104801689F
:101AB000124801400E4801600D4801686FF4802013
:101AC00001400B4801600C4801686FF4FE000140C2
:101AD00009480160064801686FF0A05001400448C1
:101AE00001604FF000010648016001B0704700BF7F
:101AF000001002400000FFF004100240FFFFF6FE5D
:101B00002C10024081B01CF8019B0BF8019BBBEB31
:101B10000A0FF8D101B0704781B0CDF800E030492C
:101B20003048FFF7BFFD44F67F77C0F2120700BFD1
:101B300000BF7F1EFDD100BF00BF00BFFFF7CEFD7D
:101B40002948FFF747FE0121284801700221284853
:101B500001700321274801700421274801700521E5
:101B6000264801700023522225490320FFF7CCFEAE
:101B700020B924480221FFF75DFD03E0224802213D
:101B8000FFF758FD0520FFF733FF20B91F4802215A
:101B9000FFF750FD03E01E480221FFF74BFD002038
:101BA000FFF71EFE20B91B480221FFF743FD03E0AB
:101BB00019480221FFF73EFD00230A2201210B48AC
:101BC000FFF740FE20B915480221FFF733FD03E07F
:101BD00013480221FFF72EFDDDF800E001B0704749
:101BE000C42000002020000021130000BB000020C2
:101BF000BC000020BD000020BE000020BF0000206F
:101C0000E0FFB43300000020130000202900002072
:101C10003E00002056000020610000206F000020E0
:101C20007F00002081B0CDF800E0FFF751FEDDF825
:101C300000E001B07047FFFF81B0CDF800E0012265
:101C400007210020FFF768FD002201210020FFF797
:101C500063FD002202210020FFF75EFD0E480146D1
:101C60000020FFF77BFD4FF4E1312020FFF78EFDD0
:101C70000A480221FFF7DEFC44F67F77C0F2120724
:101C80007F1EFDD100BF00BF00BF00BF00BFDDF859
:101C900000E001B0704700BFA4200000A9000020B0
:101CA00081B002490248016001B07047401901004B
:101CB000C001002081B0FEE701B0704700F00EF8CF
:101CC00000F046FAFFF7ECFF00F002FAFFF7B4FF6E
:101CD000FFF722FFFFF7A6FFFCE7FEE781B0CDF894
:101CE00000E0464A464B474C47494BF6803081421C
:101CF00006D94648006840F002014448016011E0FE
:101D000045F6C050814206D94048006840F00101C4
:101D10003E48016006E03D4801686FF00700014061
:101D20003A480160FFF7B8FE39480360394804605B
:101D3000394802EA00013948016002F0010040B16F
:101D400019463648006800F00200002800D1F8E784
:101D500000E0194602F4803040B10B462F4800687D
:101D600000F40030002800D1F8E700E00B4602F054
:101D7000805068B12948006840F0805127480160D0
:101D80002648006800F00050002800D1F8E7FFE77F
:101D900002F0806078B12148006840F080611F48FF
:101DA000016011461A461D48006800F000600028D6
:101DB00000D1F8E701E011461A4601F0807070B1D9
:101DC0001648006840F080711448016011461348BD
:101DD000006800F0007000B9F9E70A46FFE70C4818
:101DE000006800F00C01900000F00C00814200D06F
:101DF000F5E7DDF800E001B0704700BF81000105A4
:101E000002841D0044060100401901000020024028
:101E1000041002402C100240FFFF0F00001002408F
:101E200053657474696E67204368616E6E656C20DB
:101E30004F4B0053657474696E67204368616E6E22
:101E4000656C204572726F720053657474696E67B9
:101E500020446174612052617465204F4B005365CA
:101E60007474696E672044617461205261746520E6
:101E70004572726F72004A6F696E696E67204F4BD0
:101E8000004A6F696E696E67204572726F72005406
:101E900072616E736D697373696F6E204F4B00547E
:101EA00072616E736D697373696F6E204572726FC4
:101EB0007200494E4420545950453A20005041592F
:101EC0004C4F4144203A200000496E697469616CAE
:101ED000697A696E672E2E2E00FFFFFF0900000051
:101EE0000A000000FFFFFFFF0000000000000000EC
:101EF00000000000000000000000000000000000E2
:101F000000000000000000000000000000000000D1
:101F10001808000018000000000000000000000089
:101F200000000000000000000000000000000000B1
:101F300000000000000000000000000000000000A1
:101F4000000000000400000038000000390000001C
:101F5000FFFFFFFF00000000000000000000000085
:101F60000000000000000000000000000000000071
:101F70000000000000000000000000001808000041
:101F80001800000000000000000000000000000039
:101F90000000000000000000000000000000000041
:101FA0000000000000000000000000000000000031
:101FB000300014083500000036000000FFFFFFFF6E
:101FC0000000000000000000000000000000000011
:101FD0000000000000000000000000000000000001
:101FE00000000000000000001808000018000000B9
:101FF00000000000000000000000000000000000E1
:1020000000000000000000000000000000000000D0
:1020100000000000000000000000000008000008B0
:102020008D0F0000990F0000810F0000690F000064
:10203000750F0000D5150000E1150000C91500005E
:10204000B1150000BD150000ED1500001D160000C3
:102050009D0E0000A90E0000910E0000790E0000F8
:10206000850E0000990D0000A50D00008D0D0000EB
:10207000E50D00006D0E00003D0E0000490E000051
:102080000000000000000000000000000000000050
:10209000000000000000000001020304010203042C
:1020A0000607080900C2010000000000000000004F
:1020B0000000000030313233343536373839414290
:1020C00043444546710D0000250200003D0200001A
:1020D00000B5DFF814B0DFF814A0DFF814C0FFF784
:1020E00011FD00BD704700BF00000020B9000020B6
:1020F000201E0000FFFFFFFFFFFFFFFFFFFFFFFFAE
:10210000FFFFFFFFFFFFFFFFFFFFFFFFFFFFFFFFDF
:10211000FFFFFFFFFFFFFFFFFFFFFFFFFFFFFFFFCF
:10212000FFFFFFFFFFFFFFFFFFFFFFFFFFFFFFFFBF
:10213000FFFFFFFFFFFFFFFFFFFFFFFFFFFFFFFFAF
:10214000FFFFFFFFFFFFFFFFFFFFFFFFFFFFFFFF9F
:1021500000B5DFF810B0DFF810A0FFF77FFC00BD7E
:10216000704700BF00000020F0010020FFFFFFFFCC
:00000001FF
